:020000040000FA
:1000000001280301831608308500860183128501CB
:10001000860185190C2809283420851910280928FB
:1000200012201B280930900010083D2086001E2059
:10003000900B14280800BF308600630003308F0047
:1000400085142720851027208F0B232808000330D4
:100050008C006E308D00FA308E008E0B2D288D0BAB
:100060002B288C0B292808001B308C00FA308D00BF
:100070008D0B38288C0B3628080082073F34063455
:100080005B344F3466346D347D3407347F346F34E1
:040090000034003404
:02400E00FB3F76
:00000001FF
